:100000000C941A030C9442030C9442030C94420384
:100010000C9442030C94852B0C9442030C944203E1
:100020000C9442030C94F4290C9442030C94420364
:100030000C9442030C9442030C9442030C9442032C
:100040000C9452290C9442030C94C2290C949C29C0
:100050000C9442030C9442030C9442030C9442030C
:100060000C94662A0C94420300000000003E5B4F93
:100070005B3E3E6B4F6B3E1C3E7C3E1C183C7E3C08
:10008000181C577D571C1C5E7F5E1C00183C180016
:10009000FFE7C3E7FF0018241800FFE7DBE7FF30A6
:1000A000483A060E2629792926407F050507407F14
:1000B00005253F5A3CE73C5A7F3E1C1C08081C1C87
:1000C0003E7F14227F22145F5F005F5F06097F017D
:1000D0007F006689956A606060606094A2FFA29468
:1000E00008047E040810207E201008082A1C080836
:1000F0001C2A08081E101010100C1E0C1E0C303884
:100100003E3830060E3E0E06000000000000005F84
:1001100000000007000700147F147F14242A7F2AA0
:100120001223130864623649562050000807030062
:10013000001C2241000041221C002A1C7F1C2A08AE
:10014000083E080800807030000808080808000011
:1001500060600020100804023E5149453E00427F85
:10016000400072494949462141494D331814127FD4
:100170001027454545393C4A494931412111090774
:100180003649494936464949291E000014000000F5
:1001900040340000000814224114141414140041C7
:1001A00022140802015909063E415D594E7C121184
:1001B000127C7F494949363E414141227F414141BC
:1001C0003E7F494949417F090909013E4141517337
:1001D0007F0808087F00417F41002040413F017FA8
:1001E000081422417F404040407F021C027F7F0470
:1001F00008107F3E4141413E7F090909063E4151B9
:10020000215E7F09192946264949493203017F01A8
:10021000033F4040403F1F2040201F3F4038403FA9
:10022000631408146303047804036159494D4300BF
:100230007F4141410204081020004141417F0402F6
:10024000010204404040404000030708002054548D
:1002500078407F284444383844444428384444286B
:100260007F385454541800087E090218A4A49C78BE
:100270007F0804047800447D40002040403D007F1A
:100280001028440000417F40007C047804787C08FA
:100290000404783844444438FC18242418182424CE
:1002A00018FC7C08040408485454542404043F44B3
:1002B000243C4040207C1C2040201C3C4030403CE2
:1002C00044281028444C9090907C4464544C440042
:1002D00008364100000077000000413608000201A6
:1002E0000204023C2623263C1EA1A161123A404092
:1002F000207A38545455592155557941225454780F
:1003000042215554784020545579400C1E527212A7
:100310003955555559395454545939555454580030
:1003200000457C410002457D420001457C407D1234
:1003300011127DF0282528F07C5455450020545496
:100340007C547C0A097F4932494949323A44444441
:100350003A324A4848303A4141217A3A424020787C
:10036000009DA0A07D3D4242423D3D4040403D3C7D
:1003700024FF2424487E4943662B2FFC2F2BFF09A2
:1003800029F620C0887E0903205454794100004496
:100390007D413048484A32384040227A007A0A0A81
:1003A000727D0D19317D2629292F282629292926F4
:1003B00030484D4020380808080808080808382F39
:1003C00010C8ACBA2F102834FA00007B00000814C3
:1003D0002A142222142A14085500550055AA55AA99
:1003E00055AAFF55FF55FF000000FF00101010FF39
:1003F00000141414FF001010FF00FF1010F010F094
:10040000141414FC001414F700FF0000FF00FF1484
:1004100014F404FC141417101F10101F101F1414D0
:10042000141F00101010F0000000001F101010101A
:100430001F10101010F010000000FF10101010100E
:1004400010101010FF10000000FF140000FF00FF4C
:1004500000001F10170000FC04F4141417101714E8
:1004600014F404F40000FF00F7141414141414140A
:10047000F700F7141414171410101F101F1414147D
:10048000F4141010F010F000001F101F0000001FE7
:1004900014000000FC140000F010F01010FF10FF1A
:1004A000141414FF141010101F00000000F010FFAF
:1004B000FFFFFFFFF0F0F0F0F0FFFFFF0000000093
:1004C00000FFFF0F0F0F0F0F3844443844FC4A4A17
:1004D0004A347E02020606027E027E0263554941CC
:1004E000633844443C04407E201E2006027E020203
:1004F00099A5E7A5991C2A492A1C4C7201724C3017
:100500004A4D4D303048784830BC625A463D3E49ED
:100510004949007E0101017E2A2A2A2A2A44445F91
:10052000444440514A444040444A51400000FF0185
:1005300003E080FF000008086B6B08361236243693
:10054000060F090F060000181800000010100030F8
:1005500040FF0101001F01011E00191D1712003C80
:100560003C3C3C0000000000EF03038002CF03008E
:10057000C130ED0464031281E803850078CB0539AE
:100580002C003402F70120EA020000C00123C1015F
:1005900010C5023E28C701863601483701003A01DE
:1005A00055B1020018B603088227F20100260101A6
:1005B000E00F0F312B0C0E084EF1370710030E0918
:1005C00000E10F000E1403110731C148080F0C3170
:1005D000360F118029800000000000240027002A27
:1005E0000000000000230026002900000000080091
:1005F00002010000030407000000000000000001E9
:1006000002040810204080010204081020010204A6
:1006100008102000000000250028002B000404041E
:10062000040404040402020202020203030303039B
:100630000300FF2B11241FBECFEFD8E0DEBFCDBFDC
:1006400012E0A0E0B1E0E0E6F4E702C005900D9210
:10065000A238B107D9F724E0A2E8B2E001C01D92A8
:10066000A73FB207E1F713E0CAE1D3E004C0219746
:10067000FE010E94FE38C931D107C9F70E94312D11
:100680000C942E3A0C9400008091FD029091FE0291
:10069000891B990B08952F923F924F925F926F9210
:1006A0007F928F929F92AF92BF92CF92DF92EF9202
:1006B000FF920F931F93CF93DF93CDB7DEB7AA9727
:1006C0000FB6F894DEBF0FBECDBF0D871D8B298FEF
:1006D0003A8F4B8F5C8F6F8F7BA3FE8EED8EE091F8
:1006E0008F04F0919004892B21F0E0919104F09116
:1006F0009204FF27EE0FFF1FEE0FFF1FED56FB4F7B
:10070000608171818281938124E630E040E050E095
:100710000E94A537522E632E742E852E962E7A8B2C
:10072000898B492E86017501110FEE08FE2C870179
:100730009501A6016E2D7E2D8E2D9E2D0FE10E941E
:10074000A738A12CEAECBE2EFAE9CF2EABE3DA2EC5
:10075000E12CF12C00E010E00E94D237A52CB62C41
:10076000C72CD82CE92CFA880989142D0E944D3702
:100770000FE10E94C23829833A834B835C836D83E7
:100780007E838F83988729813A814B815C81550FC5
:10079000220B322FA90129873A874B875C87252DA9
:1007A000362D472D582D692D7F2D8989942DA980AF
:1007B000BA80CB80DC80E984FE2C0E2D1E2D0E9499
:1007C000DD3829833987498B5A8B6B8B7C8B1C01D5
:1007D0006D847D88898C9A8C3C8D3D8B4F8C5BA081
:1007E0009301A4016B8D7D89C201211534404B46D4
:1007F000544F644171058105910569F060F0612CE9
:1008000024E0722E3BE6832E44EF942EB4E1BB8F9E
:100810001D8A412C512CEB8DEF8F9301A4016E2F7B
:100820007D89C201211538454744584F6D407105F7
:100830008105910560F4612C08E5702E87E4882E0F
:1008400098EF992E2DE02F8F1D8A412C512CA980D5
:10085000B984C988DA88EB88FC8881019301A401F6
:100860006F8D7D89C2010E940338298F3A8F4B8F8B
:100870005C8F2D873E874F87588B8D859E85AF85F2
:10088000B8891FE0A12E0F97A105B10558F02D855D
:100890003E854F8558892B35310541055105B8F006
:1008A000BAE5AB2EB12CC12CD12CE12CF12C00E0FF
:1008B00010E02981398549895A896B897C89C10170
:1008C0000E944D3739014A016F8F7D8B2C01A98021
:1008D000B984C988DA88EB88FC8881019301A40176
:1008E0006F8D7D89C2010E940138E0E4AE2EF2E4F2
:1008F000BF2EAFE0CA2ED12CE12CF12C00E010E08D
:100900000E944D37A980B984C988DA88EB88FC88B1
:1009100081010E94033849014CA35BA3C901DA019C
:1009200021E030E040E050E00097A105B10521F062
:1009300020E432E44FE050E02D8B3E8B4F8B588FFC
:10094000BC01CD0127E0660F771F881F991F2A95EC
:10095000D1F72D893E894F89588D0E940D37290185
:100960003A016F8F78A389A39AA3A980B984C98813
:10097000DA88EB88FC88810194014CA15BA160E0DE
:1009800070E080E090E00E944D372BA33CA34DA384
:100990005EA36FA378A789A79AA78D859E85AF854B
:1009A000B88937E0880F991FAA1FBB1F3A95D1F766
:1009B0009250A109B109840D951DA61DB71DED8D9D
:1009C000FE8D80839183A283B3832F8D38A149A1AB
:1009D0005AA124833583468357832D893E894F89C5
:1009E000588D2087318742875387298D3A8D4B8DCB
:1009F0005C8D60E070E080E090E00E944D3729015E
:100A00003A014B01898799838D899E89AF89B88D79
:100A10005C016D01E12CF12C00E010E02BA13CA168
:100A20004DA15EA16FA178A589A59AA50E94033862
:100A300059016A017B018C019201A301B4018985EE
:100A400099810E94DD38AA960FB6F894DEBF0FBEDA
:100A5000CDBFDF91CF911F910F91FF90EF90DF906D
:100A6000CF90BF90AF909F908F907F906F905F904E
:100A70004F903F902F9008952F923F924F925F9208
:100A80006F927F928F929F92AF92BF92CF92DF929E
:100A9000EF92FF920F931F93CF93DF93CDB7DEB703
:100AA00065970FB6F894DEBF0FBECDBF2D833E8392
:100AB0004F83588769877A878B879C87A982BF86EF
:100AC000C88AD98AEA8AFB8A0C8B1D8B9E868D8602
:100AD000211506ED300701E140070EE7500703E05E
:100AE000600771058105910511F008F009C12F37E4
:100AF000304F4A4F5240610571058105910509F05B
:100B000008F469C19501A601B7018C899D89A0E00F
:100B10000E94F23809F00DC1AD80BE80CF80D8842C
:100B2000E984FA840B851C8520E033E245E75EEE1C
:100B300064E170E080E090E00E940338C901DA01CE
:100B4000A901BD0120FF99C04F5F5F4F6F4F7F4FDD
:100B500049835A836B837C834F3F5105610571053F
:100B600040F08EEF90E0A0E0B0E089839A83AB8301
:100B7000BC83E980FA800B811C81A8019701AD80BC
:100B8000BE80CF80D884E984FA840B851C8560E020
:100B900070E080E090E00E944D3729013A014B015E
:100BA0001C01211504E030070BE6400704EF500755
:100BB00004E1600771058105910509F008F47DC025
:100BC00089819A81AB81BC810297A109B10989838E
:100BD0009A83AB83BC831C012D010B859101A2017B
:100BE00060E070E080E090E00E944D3729013A011A
:100BF0004B011C0189819A81AB81BC819927AA276D
:100C0000BB27ED85FE8580839183A283B383148205
:100C1000158216821782108611861286138692011B
:100C2000A301B401C10165960FB6F894DEBF0FBEF3
:100C3000CDBFDF91CF911F910F91FF90EF90DF908B
:100C4000CF90BF90AF909F908F907F906F905F906C
:100C50004F903F902F90089545E050E060E070E0A5
:100C60001D8286ED8E8391E19F83AEE7A887B3E076
:100C7000B9871A861B861C8667CF0597A105B10523
:100C800009F066CF16E0E12EF12C00E010E0E982D9
:100C9000FA820B831C836DCF46E057E060E070E082
:100CA000E0E8ED83F0EFFE830AEF0F8312E0188790
:100CB00019861A861B861C864BCF2F3F3745474423
:100CC000584F6D4071058105910511F008F092CFE4
:100CD00089819A81AB81BC810296A11DB11D898356
:100CE0009A83AB83BC831C012D01AD80BE80CF8075
:100CF000D884E984FA840B851C8570CF412C63C0AD
:100D000029813F85488959896A897B898C899D8990
:100D1000A0E00E94F23809F49FCF1D82B6EDBE8399
:100D2000E1E1EF83FEE7F88703E009871A861B8677
:100D30001C86AD80BE80CF80D884E984FA840B8580
:100D40001C8529813F85488959896A897B898C89D5
:100D50009D890E94013829013A014B011C01A0E044
:100D60000E94F23859F629813F85488959896A8954
:100D70007B898C899D890E940338022F132F242F91
:100D8000352FD901C8010697A109B109893F9105FD
:100D9000A105B10508F043CF10E030E020E0AD85BB
:100DA000BE850D931D932D933C931397FD011482E3
:100DB00015821682178218961D921D921D921C9202
:100DC0001B9744244394512C612C712C812C912C21
:100DD000212C312C24CF29813F85488959896A8962
:100DE0007B898C899D89A0E00E94F23809F454CF58
:100DF00010E81D8380EF8E839AEF9F83A2E0A8877F
:100E0000198694CFDF92EF92FF920F931F93CF93A7
:100E1000DF93FC01E080F18002811381D481C581E0
:100E2000B681D7809701A8016D2F7C2F8B2F9D2D28
:100E3000285938424C4151096109710981099109C8
:100E4000273938424C4151056105710581059105ED
:100E500009F0D0F49701A8016D2F7C2F8B2F9D2DC9
:100E600007E00E94A7382083318342835383648341
:100E700075838683978387E0DF91CF911F910F91D0
:100E8000FF90EF90DF9008959701A8016D2F7C2FC0
:100E90008B2F9D2D2053314548435109610971091C
:100EA000810991092F32314548435105610571058A
:100EB0008105910509F098F49701A8016D2F7C2F09
:100EC0008B2F9D2D06E00E94A7382083318342831B
:100ED0005383648375838683978386E0CDCF9701A0
:100EE000A8016D2F7C2F8B2F9D2D2056324A404715
:100EF000510961097109810991092F35324A404729
:100F00005105610571058105910509F098F4970176
:100F1000A8016D2F7C2F8B2F9D2D05E00E94A738F7
:100F200020833183428353836483758386839783CD
:100F300085E0A2CF9701A8016D2F7C2F8B2F9D2DCF
:100F4000205C3444414E51096109710981099109BC
:100F50002F3B3444414E51056105710581059105D2
:100F600009F098F49701A8016D2F7C2F8B2F9D2DF0
:100F700004E00E94A7382083318342835383648333
:100F800075838683978384E077CF9701A8016D2FBF
:100F90007C2F8B2F9D2D20583948424C51406109A0
:100FA0007109810991092F373948424C5140610537
:100FB00071058105910509F098F49701A8016D2F3D
:100FC0007C2F8B2F9D2D03E00E94A7382083318337
:100FD00042835383648375838683978383E04CCFF6
:100FE0009701A8016D2F7C2F8B2F9D2D33514548E4
:100FF000534061097109810991092F3F32414548E8
:101000005340610571058105910509F098F4970138
:10101000A8016D2F7C2F8B2F9D2D02E00E94A738F9
:1010200020833183428353836483758386839783CC
:1010300082E022CF9701A8016D2F7C2F8B2F9D2D51
:1010400036524A40574061097109810991092F3F81
:1010500035424A405740610571058105910509F007
:1010600098F49701A8016D2F7C2F8B2F9D2D01E007
:101070000E94A7382083318342835383648375831E
:101080008683978381E0F8CE80E0F6CE2F923F9260
:101090004F925F926F927F928F929F92AF92BF9288
:1010A000CF92DF92EF92FF920F931F93CF93DF9334
:1010B000CDB7DEB76C970FB6F894DEBF0FBECDBFCD
:1010C000322E3D87242E5E872B013C01A982BF86EC
:1010D000C88AD98AEA8AFB8A0C8B1D8B988E8F8AE4
:1010E000211501EC30070AE140070DE3500705E048
:1010F000600771058105910509F0A0F52F3710EF04
:1011000031071AEF410712E05107610571058105AA
:10111000910509F008F4B4C12F3F354D41415E47B8
:10112000634071058105910509F008F48FC029819C
:101130003F85488959896A897B898C899D89A0E086
:10114000992493940E94F23809F08EC011E01E8B0E
:1011500094E0892E912CA12CB12C89869A86AB869D
:10116000BC862FC0312CB1ECBD872AE1222EEDE3E5
:10117000EE8735E0432E512C612C712CD8CFA32C57
:10118000BD84C22CDE847201830120E034E04BE692
:1011900054EF64E170E080E090E00E940338122F89
:1011A000B32FF42FE52FA7E00E94F23821F416E0C8
:1011B000B0E0F0E0E0E0CF011987BA879B87EC87C9
:1011C0001E8A89849A84AB84BC84A501940160E062
:1011D00070E0CB01A32CBD84C22CDE84720183019C
:1011E00029833A834B835C836D837E838F839887C7
:1011F00060E070E080E090E00E944D3729833F87F7
:10120000488B598B6A8B7B8B8C8B9D8B0E89C12C69
:10121000D12C7601C39440E050E0BA01013009F0CE
:10122000A9C0AF89B88D1D921D921D921C92139773
:10123000FD01148215821682178281E090E0A0E001
:10124000B0E080879187A287B387DEC029813F8580
:10125000488959896A897B898C899D89A0E00E9487
:10126000F23809F48CCF912CA32CBD84C22CDE84DF
:101270007201830129813F85488959896A897B895F
:101280008C899D890E94033829873A874B875C8720
:1012900029853A854B855C8506E0A02EB12C263049
:1012A00031054105510568F089859A85AB85BC8576
:1012B00089309740A105B105D0F0B8E0AB2E17E01A
:1012C000B12EC12CD12CE12CF12C00E010E02981B1
:1012D0003F85488959896A897B898C899D890E94C3
:1012E0000338322E3D87242E5E872B013C01A32C30
:1012F000BD84C22CDE847201830129813F85488927
:1013000059896A897B898C899D890E940138E0E42A
:10131000AE2EF2E4BF2EAFE0CA2ED12CE12CF12C80
:1013200000E010E00E944D37A32CBD84C22CDE8467
:10133000720183010E940338A32FF42FE52F422F5F
:101340005A2F6F2F7E2FA0E4CA2EA2E4DA2EAFE030
:10135000EA2EF12C411551056105710521F4C12CCE
:10136000D12C7601C394AA24A3949A1409F46DC0D5
:1013700001E00E8BCB01BA0117E0660F771F881FC3
:10138000991F1A95D1F7A70196010E940D37298F51
:101390003A8F4B8F5C8F89849A84AB84BC8407E03E
:1013A000880C991CAA1CBB1C0A95D1F795018401D5
:1013B00012502109310948015901298D3A8D4B8D6F
:1013C0005C8D280D391D4A1D5B1DAF89B88D2D938D
:1013D0003D934D935C931397FD01648375838683DE
:1013E00097831896CD92DD92ED92FC921B978E8892
:1013F000882051F039829D849F86288AAE84A98AEC
:101400004A8A5B8A6C8A7D8A29813F854889598905
:101410006A897B898C899D896C960FB6F894DEBFAA
:101420000FBECDBFDF91CF911F910F91FF90EF9035
:10143000DF90CF90BF90AF909F908F907F906F90F4
:101440005F904F903F902F900895AF89B88D1D9277
:101450001D921D921C921397FD0114821582168213
:10146000178281E090E0A0E0B0E080879187A287BA
:10147000B3873982FD85FF87288A8E84898AC0CF09
:1014800029813F85488959896A897B898C899D8909
:10149000A0E0E0E83E2EF0EFFD87FAEF2F2E02E00D
:1014A0000E87412C512C612C712C0E94F23809F0CE
:1014B000DACE18E0B7E07DCEDF92EF92FF920F9385
:1014C0001F93CF93DF93FC01E080F18002811381B1
:1014D000D481C581B681D7809701A8016D2F7C2F5B
:1014E0008B2F9D2D20583A414640510961097109C1
:1014F000810991092F373A4146405105610571052F
:101500008105910509F0D0F49701A8016D2F7C2F7A
:101510008B2F9D2D07E00E94A738208331834283C3
:101520005383648375838683978387E0DF91CF91AC
:101530001F910F91FF90EF90DF9008959701A80100
:101540006D2F7C2F8B2F9D2D35534C4051096109F8
:101550007109810991092F3F34434C4051056105C0
:1015600071058105910509F098F49701A8016D2F87
:101570007C2F8B2F9D2D06E00E94A738208331837E
:1015800042835383648375838683978386E0CECFBB
:101590009701A8016D2F7C2F8B2F9D2D3A56484126
:1015A000510961097109810991092F3F3946484163
:1015B0005105610571058105910509F098F49701C0
:1015C000A8016D2F7C2F8B2F9D2D05E00E94A73841
:1015D0002083318342835383648375838683978317
:1015E00085E0A4CF9701A8016D2F7C2F8B2F9D2D17
:1015F000345D4043510961097109810991092F3F07
:10160000334D40435105610571058105910509F090
:1016100098F49701A8016D2F7C2F8B2F9D2D04E04E
:101620000E94A73820833183428353836483758368
:101630008683978384E07ACF9701A8016D2F7C2F52
:101640008B2F9D2D385A4146510961097109810935
:1016500091092F3F374A41465105610571058105C2
:10166000910509F098F49701A8016D2F7C2F8B2F1D
:101670009D2D03E00E94A73820833183428353834A
:10168000648375838683978383E050CF9701A80195
:101690006D2F7C2F8B2F9D2D3055434C51096109A7
:1016A0007109810991092F3F3F44434C5105610560
:1016B00071058105910509F098F49701A8016D2F36
:1016C0007C2F8B2F9D2D02E00E94A7382083318331
:1016D00042835383648375838683978382E026CF16
:1016E0009701A8016D2F7C2F8B2F9D2D305A4648D6
:1016F000514061097109810991092F3F3F494648CD
:101700005140610571058105910509F098F4970133
:10171000A8016D2F7C2F8B2F9D2D01E00E94A738F3
:1017200020833183428353836483758386839783C5
:1017300081E0FCCE80E0FACE833081F028F4813065
:1017400099F08230A9F008958730A9F08830C9F067
:101750008430B1F4809180008F7D03C0809180003F
:101760008F7780938000089584B58F7784BD089526
:1017700084B58F7DFBCF8091B0008F778093B000D0
:1017800008958091B0008F7DF9CFCF93DF93282FFC
:1017900030E0F901E551FA4F8491F901E150FA4F37
:1017A000D491F901E35EF94FC491CC23A1F08111EA
:1017B0000E949C0BEC2FF0E0EE0FFF1FEF51FA4F51
:1017C000A591B491EC91ED2381E090E009F480E0E3
:1017D000DF91CF91089580E090E0FACF1F93CF93EF
:1017E000DF93282F30E0F901E551FA4F8491F90198
:1017F000E150FA4FD491F901E35EF94FC491CC2343
:10180000A9F0162F81110E949C0BEC2FF0E0EE0F37
:10181000FF1FED5EF94FA591B4918FB7F894EC914D
:10182000111108C0D095DE23DC938FBFDF91CF91DB
:101830001F910895DE2BF8CFCF93DF9390E0FC014A
:10184000E150FA4F2491835E994FFC0184918823E3
:10185000C9F090E0880F991FFC01E952FA4FA59159
:10186000B491FC01ED5EF94FC591D49161110DC0A9
:101870009FB7F8948C91209582238C93888128239C
:1018800028839FBFDF91CF910895623051F49FB7B5
:10189000F8943C91822F809583238C93E8812E2BA2
:1018A000EFCF8FB7F894EC912E2B2C938FBFEACF0C
:1018B0003FB7F8948091F9029091FA02A091FB024F
:1018C000B091FC0226B5A89B05C02F3F19F00196E8
:1018D000A11DB11D3FBFBA2FA92F982F8827BC018A
:1018E000CD01620F711D811D911D42E0660F771FB2
:1018F000881F991F4A95D1F708958F929F92AF92B2
:10190000BF92CF92DF92EF92FF924B015C010E9457
:10191000580C6B017C010E94580C6C197D098E09D2
:101920009F09683E734081059105A8F321E0821A62
:101930009108A108B10888EEC80E83E0D81EE11C0A
:10194000F11C81149104A104B10429F7FF90EF90D8
:10195000DF90CF90BF90AF909F908F90089580912F
:1019600089028F5F809389028091880281110AC069
:101970008FE00E94C50B892BB9F481E08093880227
:101980001092890280918802813071F480918902DD
:101990008A3051F48FE00E94C50B892BD1F482E08C
:1019A000809388021092890280918802823009F027
:1019B00053C080918902843109F044C08FE00E94B5
:1019C000C50B2091EC02892B39F021602093EC02A9
:1019D000089510928802E8CF2E7FF8CF8FE00E9402
:1019E000C50B2091EC02892B11F02260EFCF2D7FE7
:1019F000EDCF8FE00E94C50B2091EC02892B11F0F6
:101A00002460E4CF2B7FE2CF8FE00E94C50B2091B2
:101A1000EC02892B11F02860D9CF277FD7CF8FE038
:101A20000E94C50B2091EC02892B39F02061209394
:101A3000EC0281E08093EE0208952F7EF8CF1092A1
:101A400088020895883251F28C3399F28035E1F2A0
:101A5000843629F3883799F3089508950895AF924D
:101A6000BF92CF92DF92EF92FF920F931F93CF938B
:101A7000DF936C017B018B01040F151FEB015E01ED
:101A8000AE18BF08C017D10759F06991D601ED9182
:101A9000FC910190F081E02DC6010995892B79F721
:101AA000C501DF91CF911F910F91FF90EF90DF90D3
:101AB000CF90BF90AF900895FC01538D448D252F9A
:101AC00030E0842F90E0821B930B541710F0CF96D8
:101AD000089501970895FC01918D828D981761F00A
:101AE000A28DAE0FBF2FB11D5D968C91928D9F5F21
:101AF0009F73928F90E008958FEF9FEF0895FC0100
:101B0000918D828D981731F0828DE80FF11D858DB2
:101B100090E008958FEF9FEF0895FC01918D228D45
:101B2000892F90E0805C9F4F821B91098F739927CA
:101B300008958FE693E00E948D0D21E0892B09F432
:101B400020E0822F089580E090E0892B29F00E9408
:101B5000990D81110C9400000895FC01A48DA80F2B
:101B6000B92FB11DA35ABF4F2C91848D90E00196DF
:101B70008F739927848FA689B7892C93A089B189FF
:101B80008C91837080648C93938D848D981306C0A0
:101B90000288F389E02D80818F7D80830895EF9204
:101BA000FF920F931F93CF93DF93EC0181E0888F17
:101BB0009B8D8C8D98131AC0E889F989808185FFE7
:101BC00015C09FB7F894EE89FF896083E889F98989
:101BD00080818370806480839FBF81E090E0DF918B
:101BE000CF911F910F91FF90EF900895F62E0B8DDE
:101BF00010E00F5F1F4F0F731127E02E8C8D8E1199
:101C00000CC00FB607FCFACFE889F989808185FFFF
:101C1000F5CFCE010E94AD0DF1CFEB8DEC0FFD2F76
:101C2000F11DE35AFF4FF0829FB7F8940B8FEA89BA
:101C3000FB8980818062CFCFCF93DF93EC01888DC9
:101C40008823B9F0AA89BB89E889F9898C9185FD37
:101C500003C0808186FD0DC00FB607FCF7CF8C91C5
:101C600085FFF2CF808185FFEDCFCE010E94AD0DC3
:101C7000E9CFDF91CF9108952091AB02260F332752
:101C8000331F21323105ECF420914503FC0190E033
:101C900080E0243069F082E00895A091AB022191A8
:101CA000AC0145575D4FA40FB52FB11D2C93019684
:101CB000861798F38091AB02680F6093AB0280E0C7
:101CC000089581E008951092450381E080934403D4
:101CD00010921F0361E082E10E94EE0B61E083E15C
:101CE0000E94EE0BE9EBF0E080818E7F80838081A3
:101CF0008D7F808388E48093B80085E48093BC0066
:101D00000895CF93DF9391E090938A028823B9F0EE
:101D1000C091B800D091BA008091BC008A7B8093BA
:101D2000BC0060E082E10E94EE0B60E083E10E9473
:101D3000EE0B0E94630ED093BA00C093B800DF91FF
:101D4000CF9108958F929F92AF92BF92CF92DF92E0
:101D5000EF92FF920F931F93CF93DF93D0916E0377
:101D6000D13208F0D7C0182FC0916D030E94580CD3
:101D70006B017C018091450381116BC082E08093EF
:101D80004503109344038FEF809343031092420363
:101D9000D0934103ADE4B3E0E1E2F3E080E0D81397
:101DA00091C01092200380912003CC0FC82BC093C8
:101DB000200380911F03813009F088C010921F0317
:101DC0000E94580C6B017C01809120038093BB0022
:101DD0008091470390914803A0914903B0914A0331
:101DE000892B8A2B8B2BA1F00E94580C0091470362
:101DF000109148032091490330914A036C197D09E1
:101E00008E099F09061717072807390708F442C0EB
:101E10008091BC0083FDD8CF85EC8093BC000E94EC
:101E2000580C6B017C0180914503823009F450C04D
:101E3000809143038F3F09F46FC080914303803248
:101E400009F46CC080914303803309F469C084E0D5
:101E500026C08091470390914803A0914903B09117
:101E60004A03892B8A2B8B2B09F484CF0E94580CB0
:101E70008090470390904803A0904903B0904A0394
:101E80006C197D098E099F0986169706A806B90662
:101E900008F070CF809146030E94810E85E0109279
:101EA0004C0310926E0310924B03DF91CF911F9160
:101EB0000F91FF90EF90DF90CF90BF90AF909F90E9
:101EC0008F9008959D9191938F5F69CF85EEA5CFF7
:101ED0008091470390914803A0914903B0914A0330
:101EE000892B8A2B8B2B09F49ECF0E94580C0091D2
:101EF0004703109148032091490330914A036C191C
:101F00007D098E099F09061717072807390708F06A
:101F10008ACFC0CF81E0C3CF80E0C1CF82E0BFCF06
:101F200083E0BDCF0895E091FE028091FD02E817A5
:101F300030F4F0E0E150FD4F808190E008958FEFA4
:101F40009FEF08959091FE028091FD022FEF3FEFE9
:101F5000981748F4E92FF0E0E150FD4F208130E080
:101F60009F5F9093FE02C9010895CF92DF92EF9296
:101F7000FF920F931F93CF93DF937C01CB018A01D4
:101F800020914B03222389F0EB016B01C40ED51E77
:101F9000CC15DD0569F06991D701ED91FC910190B7
:101FA000F081E02DC7010995F3CF642F0E943C0E0C
:101FB000C801DF91CF911F910F91FF90EF90DF90BB
:101FC000CF900895CF93DF931F92CDB7DEB769838B
:101FD00020914B032223F9F020916E03203258F018
:101FE00021E030E0FC013383228390E080E00F9019
:101FF000DF91CF91089580914C03E82FF0E0E35BEF
:10200000FC4F998190838F5F80934C0380936E0384
:1020100081E090E0ECCF61E0CE0101960E943C0EA1
:10202000F7CFCF93C62F9091A40421E020934B03C8
:1020300090936D0310924C0310926E03682F8CE006
:1020400094E00E94E20F6C2F8CE094E00E94E20F7B
:1020500081E0CF910C94A20EEF92FF920F931F9309
:10206000CF93DF93062F7A019091A40421E020936F
:102070004B0390936D0310924C0310926E03682FE4
:102080008CE094E00E94E20FE70110E0CE018E198F
:102090009F098017910734F469918CE094E00E94C5
:1020A000E20FF4CF81E0DF91CF911F910F91FF906C
:1020B000EF900C94A20EFC01A5A1B6A18C9192A563
:1020C00089238C93A5A1B6A18C9191A5892B8C9382
:1020D00008950F931F93CF93DF93EC018B018DA98C
:1020E00081110DC01EBD0DB407FEFDCF0EBD0DB498
:1020F00007FEFDCFDF91CF911F910F9108958130A1
:10210000E9F480E1E9A1FAA1908117FF14C02DA1A3
:10211000922B9083EBA1FCA190812FA1922B908315
:10212000EBA1FCA1908128A592239083000F111FA1
:10213000815041F7DFCF2EA19223EBCFEF8DF8A195
:102140001083CE010E945B10EF8DF8A10083CE01B9
:10215000DF91CF911F910F910C945B10FC0185A929
:10216000811105C06EBD0DB407FEFDCF089581300D
:10217000E1F488E0A1A1B2A19C9167FF13C025A161
:10218000922B9C93A3A1B4A19C9127A1922B9C93E9
:10219000660FA3A1B4A19C9120A592239C9381508A
:1021A00049F7089526A19223ECCFA78DB0A16C9397
:1021B000CF010C945B10CF93DF93EC01ED8DFE8D7E
:1021C00080819CA989238083CE010E94AE10ED8D71
:1021D000FE8D80819BA9892B8083DF91CF9108950B
:1021E000AF92BF92CF92DF92EF92FF920F931F9325
:1021F000CF93DF93EC015B016A0121503109790132
:10220000E60EF71E01501109040F151F80910701FA
:10221000909108018617970739F4809105019091F4
:1022200006018E159F05A1F06AE2CE010E94DB1027
:10223000B501CE010E946910B701CE010E9469105C
:10224000B0920801A0920701F0920601E092050108
:1022500080910301909104018C159D0539F48091C2
:1022600001019091020180179107A1F06BE2CE016C
:102270000E94DB10B601CE010E946910B801CE01A8
:102280000E946910D0920401C092030110930201D0
:10229000009301016CE2CE01DF91CF911F910F916C
:1022A000FF90EF90DF90CF90BF90AF900C94DB1039
:1022B000FC0185A9811104C091A182A19CBD8DBDA5
:1022C00008951F93CF93DF93EC01162FE881F981D6
:1022D0000284F385E02D0995112371F06DADCE01D7
:1022E0000E94DB10E881F9810688F789E02DCE0194
:1022F000DF91CF911F9109946EADF1CFAF92BF9254
:10230000CF92DF92EF92FF920F931F93CF93DF93C1
:10231000EC0177FD38C088859985681779079CF5A9
:1023200057FD31C08A859B854817590764F56901B7
:102330007A015B01E881F9810284F385E02DCE0109
:102340000995E881F98102A4F3A5E02D01E010E0F0
:1023500021E030E0A701B501CE010995B601CE011B
:102360000E946910E881F9810688F789E02DCE0185
:10237000DF91CF911F910F91FF90EF90DF90CF9061
:10238000BF90AF900994DF91CF911F910F91FF9073
:10239000EF90DF90CF90BF90AF9008958F929F9273
:1023A000AF92BF92CF92DF92EF92FF920F931F9363
:1023B000CF93DF93EC0149015701E881F98102A431
:1023C000F3A5E02D09959401D8010E943E376B01D9
:1023D0007C01C114D104E104F10409F490C08DA979
:1023E000811115C081E0C81AD108E108F1088FEF0A
:1023F000C816D806E806F80609F481C0BEBC0DB4BC
:1024000007FEFDCFAEBC0DB407FEFDCFEBCF813094
:1024100009F045C081E0C81AD108E108F1088FEF42
:10242000C816D806E806F80609F469C09B2D88E0AE
:10243000E9A1FAA1208197FF2CC03DA1232B208385
:10244000EBA1FCA120813FA1232B2083EBA1FCA1C8
:10245000208138A523232083990F815049F79A2D95
:1024600088E0E9A1FAA1208197FF16C03DA1232BA6
:102470002083EBA1FCA120813FA1232B2083EBA192
:10248000FCA1208138A523232083990F815049F78F
:10249000C1CF3EA12323D3CF3EA12323E9CFBA103E
:1024A00016C0CC0CDD1CEE1CFF1CEF8DF8A1B08219
:1024B00081E0C81AD108E108F1088FEFC816D806E4
:1024C000E806F806E1F0CE010E945B10F1CF81E052
:1024D000C81AD108E108F1088FEFC816D806E80637
:1024E000F80669F0EF8DF8A1B082CE010E945B1072
:1024F000EF8DF8A1A082CE010E945B10E8CFDF91A2
:10250000CF911F910F91FF90EF90DF90CF90BF90F0
:10251000AF909F908F9008958F929F92AF92BF92AD
:10252000CF92DF92EF92FF920F931F93CF93DF939F
:102530004C01EB016A01590137FF07C0C90101963F
:10254000C80FD91FB194A194B108F401A085B18539
:10255000CA17DB070CF058C017FF07C0C801019667
:10256000C80ED91E119501951109F4018285938534
:10257000C816D9060CF048C0FE01EA0DFB1DAF01DC
:102580004150510957FD40C0B601600F711F9B01BA
:102590002150310937FD38C0D7FF03C05F01D0E0BB
:1025A000C0E0D7FE03C08B01D12CC12C4A175B07BA
:1025B0001CF05D01AC1ABD0A281739071CF08C010C
:1025C0000C191D09D401ED91FC910284F385E02DD5
:1025D000C40109959501A601BE01C4010E94CE1156
:1025E000D401ED91FC910688F789E02DC401DF91BB
:1025F000CF911F910F91FF90EF90DF90CF90BF9000
:10260000AF909F908F900994DF91CF911F910F9180
:10261000FF90EF90DF90CF90BF90AF909F908F9002
:102620000895EF92FF920F931F932115310529F022
:102630000115110511F00E948C121F910F91FF904E
:10264000EF9008958F929F92AF92BF92CF92DF92B8
:10265000EF92FF920F931F93CF93DF935C014B0197
:102660006A01E90177FD52C0DC0118968D919C91B9
:10267000681779070CF04AC0209709F447C037FF64
:1026800007C0C9010196C80ED91ED195C195D109BF
:10269000F50182859385C816D906C4F5A6014C0FAD
:1026A0005D1F9A012150310937FD30C0D7FE03C0AC
:1026B000EA01D12CC12C281739071CF0EC01CC19E8
:1026C000DD09D501ED91FC910284F385E02DC50172
:1026D000099578018E0121E030E0A601B401C50121
:1026E0000E94CE11D501ED91FC910688F789E02D6D
:1026F000C501DF91CF911F910F91FF90EF90DF9077
:10270000CF90BF90AF909F908F900994DF91CF9121
:102710001F910F91FF90EF90DF90CF90BF90AF90FF
:102720009F908F9008958F929F92AF92BF92CF9279
:10273000DF92EF92FF920F931F93CF93DF935C0191
:102740006B014A01E90157FD52C0DC011A968D91D7
:102750009C91481759070CF04AC0209709F447C0CC
:1027600037FF07C0C9010196C80ED91ED195C19582
:10277000D109F50180859185C816D906C4F5A60151
:102780004C0F5D1F9A012150310937FD30C0D7FE33
:1027900003C0EA01D12CC12C281739071CF0EC0129
:1027A000CC19DD09D501ED91FC910284F385E02D72
:1027B000C5010995780101E010E09E01A401B60170
:1027C000C5010E94CE11D501ED91FC910688F789D3
:1027D000E02DC501DF91CF911F910F91FF90EF90F8
:1027E000DF90CF90BF90AF909F908F900994DF9132
:1027F000CF911F910F91FF90EF90DF90CF90BF90FE
:10280000AF909F908F900895EF92FF920F931F9338
:10281000CF93DF9377FD32C0DC011896ED91FC91E8
:102820006E177F075CF52115310541F137FF07C0B1
:10283000F90131964E0F5F1F319521953109DC0169
:102840001A96ED91FC914E175F07C4F4EA01C20F8E
:10285000D31FDE011197B7FD11C057FF03C09E01C2
:1028600050E040E0AE17BF071CF09F01241B350B62
:102870007801890121E030E00E94CE11DF91CF91F3
:102880001F910F91FF90EF9008952F923F924F92DA
:102890005F926F927F928F929F92AF92BF92CF92F0
:1028A000DF92EF92FF920F931F93CF93DF93CDB7F9
:1028B000DEB72B970FB6F894DEBF0FBECDBF3C013D
:1028C0007E836D835B874A872F832801170181E010
:1028D00090E06C01C41AD50ACA01919581959109BD
:1028E0009C01220F331F3A832983C80101969C83E0
:1028F0008B83F12CE12C88248394912C9B012F5FF6
:102900003F4F398728878A859B85E816F9060CF0A2
:102910006DC0AA84BB84D7FC0CC05C0191E0A91AED
:10292000B10829813A812E5F3F4F3A832983C20E35
:10293000D31E3FEFE31AF30A82E0880E911CC80C05
:10294000D91CAE14BF0444F42A853B852A153B05E7
:10295000D1F4BB86AA86D7CF9501220F331F4D81B4
:102960005E814A195B098F81813019F58B819C81C9
:10297000280F391F8101B701660D771D80EB94E0A8
:102980000E940414E1CF9F81913029F594012250D7
:102990003109240D351D6A857B85660D771D810102
:1029A000488559854E195F0980EB94E00E94041414
:1029B000D0CF8B819C81280F391F8101B3016E1903
:1029C0007F0980EB94E00E9404142A853B852A1538
:1029D0003B0509F4BECF940122503109240D351D69
:1029E000B3018A859B85681B790BD9CF2B960FB6CF
:1029F000F894DEBF0FBECDBFDF91CF911F910F9135
:102A0000FF90EF90DF90CF90BF90AF909F908F900E
:102A10007F906F905F904F903F902F900895EF922E
:102A2000FF920F931F93CF93DF9357FD31C0DC01CB
:102A30001A96ED91FC914E175F0754F5211531055B
:102A400039F137FF07C0F90131966E0F7F1F3195BD
:102A500021953109DC011896ED91FC916E177F07E5
:102A6000BCF4EB01C20FD31FDE011197B7FD10C0FC
:102A700077FF03C09E0170E060E0AE17BF071CF057
:102A80009F01261B370B780101E010E00E94CE1158
:102A9000DF91CF911F910F91FF90EF9008958F924A
:102AA0009F92AF92BF92CF92DF92EF92FF920F93DD
:102AB0001F93CF93DF9347012115310509F44BC0D4
:102AC0000115110509F447C037FF07C0F901319618
:102AD0006E0F7F1F319521953109DC011896AD905D
:102AE000BC906A157B05BCF517FF07C0F80131964D
:102AF0004E0F5F1F119501951109DC011A96ED919A
:102B0000FC914E175F073CF56B01C20ED31EE60128
:102B10002197D7FD20C07A01E00EF11ED701119751
:102B2000B7FD19C077FF03C0960170E060E057FF62
:102B300003C0870150E040E0CA15DB051CF0950199
:102B4000261B370BAE17BF071CF08F01041B150B9C
:102B500074010E94CE11DF91CF911F910F91FF90D0
:102B6000EF90DF90CF90BF90AF909F908F9008959F
:102B7000EF92FF920F931F93CF93DF93EC0177FDBA
:102B800022C08885998568177907ECF457FD1BC02A
:102B90008A859B8548175907B4F47901E881F98142
:102BA00002A4F3A5E02D01E010E021E030E0CE0129
:102BB0000995B701CE01DF91CF911F910F91FF9041
:102BC000EF900C946910DF91CF911F910F91FF90BE
:102BD000EF9008952F923F924F925F926F927F9263
:102BE0008F929F92AF92BF92CF92DF92EF92FF921D
:102BF0000F931F93CF93DF937C016B01EA0181E078
:102C000090E05C01A41AB50A66247724641A750A58
:102C1000660C771C10E000E088248394912C822FAE
:102C20008470582E822F8270482E822F8870382E02
:102C30002170222E0C171D070CF079C0B7FC06C0BE
:102C4000219782E0680E711CA60CB71C0F5F1F4F06
:102C500082E0880E911CA80CB91C5520C1F02FEF02
:102C60003FEFAE014C0D5D1DB701600F711F80EB92
:102C700094E00E94B8152FEF3FEFA601400F511FBF
:102C8000BE016E0D7F1D80EB94E00E94B8154420BC
:102C9000C1F02FEF3FEFA6014C1B5D0BB701600F9A
:102CA000711F80EB94E00E94B8152FEF3FEFA60153
:102CB000401B510BBE016E0D7F1D80EB94E00E9406
:102CC000B8153320C1F02FEF3FEFA601400F511F81
:102CD000B7016C1B7D0B80EB94E00E94B8152FEFC1
:102CE0003FEFAE014C0D5D1DB701601B710B80EB1A
:102CF00094E00E94B815222009F49CCF2FEF3FEFFB
:102D0000A601401B510BB7016C1B7D0B80EB94E0BF
:102D10000E94B8152FEF3FEFA6014C1B5D0BB701CA
:102D2000601B710B80EB94E00E94B81583CFDF919C
:102D3000CF911F910F91FF90EF90DF90CF90BF90B8
:102D4000AF909F908F907F906F905F904F903F904B
:102D50002F900895CF93DF93EC010E9458118FA913
:102D600087FD06C0EB8DFC8D80819AA98923808325
:102D7000DF91CF9108950895AF92BF92CF92DF92E5
:102D8000EF92FF920F931F93CF93DF93EC01E62E08
:102D90008A01A22E0E9458118FA987FD06C0EB8DD3
:102DA000FC8D80819AA989238083ED8DFE8D8081A1
:102DB0009CA9892380836E2DCE010E94AE10ED8DDB
:102DC000FE8D80819BA9892B8083D12CC12CB12CB5
:102DD000CA14DB04E4F48DA97801823079F488A95F
:102DE000882361F0F801619171917F01CE010E9409
:102DF0006910FFEFCF1ADF0A8701EACFFFEFEF1A62
:102E0000FF0AF8016491CE010E94AE10F2CF8FA9A3
:102E100087FD06C0EB8DFC8D808199A9892B80836D
:102E2000DF91CF911F910F91FF90EF90DF90CF90A6
:102E3000BF90AF900895611106C060E220E050E0BD
:102E400040E00C94BC1661E2F9CF0F931F93CF932F
:102E5000DF931F92CDB7DEB78C016370DC0156960D
:102E60006C935697623009F468C0633009F46AC005
:102E7000613009F456C088E4898380EF90E01996A8
:102E80009C938E93189780E491E01B969C938E936D
:102E90001A97C8010E945811D801D7968C91D797DC
:102EA00087FD09C05B96ED91FC915C978081D2967D
:102EB0009C9189238083D8015D96ED91FC915E976A
:102EC0008081D4969C918923808366E3C8010E9407
:102ED000AE10D8015D96ED91FC915E978081D396FE
:102EE0009C91D397892B8083D5968C91823061F108
:102EF0006981C8010E94AE10D801D7968C91D797EE
:102F000087FD09C05B96ED91FC915C978081D1961D
:102F10009C91892B80830F90DF91CF911F910F910E
:102F2000089588E2898380E491E0F80191878087A1
:102F300080EF90E093878287ACCF88E8898380EF29
:102F400090E09DCF88EEEECFF80180A9882381F232
:102F500069817A81C8010E946910CECFFC0187A9DE
:102F600087FD06C0A38DB48D9C9181A9892B8C937C
:102F700008954F925F926F927F928F929F92AF923D
:102F8000BF92CF92DF92EF92FF920F931F93CF9356
:102F9000DF93EC017B013A01690180EB94E00E9430
:102FA000AA1643018AE0881A91085E0185E0A80EFE
:102FB000B11C0FEF1FEF9401A701B50180EB94E066
:102FC0000E940F1526014E0C5F1CA20141505109B1
:102FD0009401B50180EB94E00E940F158AE0C81AB5
:102FE000D10885E0E80EF11C9601A701BE0180EB37
:102FF00094E00E940414C60DD71DBE0161507109F2
:103000009601A70180EB94E00E94041421E045E0C2
:1030100050E0B701C5010E94EA15269722E045E07D
:1030200050E0B701CE010E94EA1586E0481A510827
:1030300024E045E050E0B201CE010E94EA1528E00C
:1030400045E050E0B201C5010E94EA1580EB94E032
:10305000DF91CF911F910F91FF90EF90DF90CF9074
:10306000BF90AF909F908F907F906F905F904F90A8
:103070000C94AE174F925F926F927F928F929F92B5
:10308000AF92BF92CF92DF92EF92FF920F931F9376
:10309000CF93DF933C01EB015A01690180EB94E08F
:1030A0000E94AA16230185E0480E511C95012A5062
:1030B000310978018601AE01B20180EB94E00E94F3
:1030C0004F158BE0C81AD1082596C501860D971DAE
:1030D000860121E045E050E0BE0106970E944514BC
:1030E00022E045E050E0BE01C2010E94451480EBA1
:1030F00094E0DF91CF911F910F91FF90EF90DF90BF
:10310000CF90BF90AF909F908F907F906F905F9087
:103110004F900C94AE170895FC016370668B848108
:10312000958126813781613039F0633029F09187AC
:103130008087338722870895318720879387828706
:1031400008952F923F924F925F926F927F928F924B
:103150009F92AF92BF92CF92DF92EF92FF920F9326
:103160001F93CF93DF93CDB7DEB76A970FB6F8946E
:10317000DEBF0FBECDBF9A8F898F7A8369834A01E4
:10318000D22E18870F833701BC2CDC0159962D9164
:103190003C915A972115310509F015C118968D916A
:1031A0009C911997681779070CF0D7C11A968D91E1
:1031B0009C91481759070CF0D0C14C2C512CB6E00B
:1031C000CB9E600D711D11247C876B871616170628
:1031D0000CF0C3C1EA2DF0E0FA87E98793E0EE0F27
:1031E000FF1F9A95E1F7F88BEF87CF01840F951FAA
:1031F000181619060CF0B1C1A98DBA8D58968C918C
:10320000811104C0BFEABD1508F4D394A98DBA8D0D
:10321000ED91FC9111970284F385E02DCD01099584
:10322000B5E0DB9EC0011124E981FA81FC83EB83C8
:10323000312C212C9C0128593F4F388F2F8B4A2D40
:1032400050E05E8B4D8BEF89F88DE20DF31D4491BC
:103250009E828D82D12CC12C69817A81620D731D71
:103260007A8B698B842F90E09C8B8B8BE98DFA8D08
:10327000A081B18140FF82C0F1E0BF126FC0AF12E8
:103280006DC01C96ED91FC912F813885A4014C0DE9
:103290005D1D69897A89898D9A8D0995EB89FC89EB
:1032A000F595E7954E2F5FEFC51AD50A6D817E81A2
:1032B0008D899E89680F791F7E836D8398E0C9167A
:1032C000D10481F6AFEF2A1A3A0AEB81FC81E40DB2
:1032D000F51DFC83EB83F5E02F16310409F0B3CF25
:1032E0002F81388526153705B9F0A98DBA8DED9156
:1032F000FC91B1E0BB1257C0AB1255C069817A8115
:103300006B5F7F4F0088F189E02D830128E030E07A
:10331000A401898D9A8D0995A98DBA8DED91FC91A5
:1033200011970688F789E02DCD016A960FB6F894BB
:10333000DEBF0FBECDBFDF91CF911F910F91FF90E8
:10334000EF90DF90CF90BF90AF909F908F907F9045
:103350006F905F904F903F902F9009941E96ED9143
:10336000FC91EF80F88409851A8592014D815E8178
:103370006B817C81898D9A8D099590CF2F813885BD
:103380002615370509F48ACF31E0B31207C0A3121E
:1033900005C01C96ED91FC91930178CF1E96ED919E
:1033A000FC917301E0CF6B857C85641975090684F7
:1033B000F785E02D73010F8518899201A401898D8D
:1033C0009A8D0995A9CFF901349694913297459138
:1033D0005491D91AB7E0DB9E400D511D1124F9011B
:1033E000259134913C8B2B8BFA0125903490FA0176
:1033F0003296749031963491398B3296649031962E
:10340000449041E04C1518F04A1508F07FC0662D35
:10341000062C000C770B7C836B83842D042C000C12
:10342000990B9E838D83A98DBA8DED91FC91119797
:103430000284F385E02DCD010995512CD12CC12CAE
:10344000EA2DF0E0FA87E9872B2D30E03C872B87C7
:10345000A401440D511D47FC5A95588F4F8B69812B
:103460007A81660D711D67FC7A957E876D877989F3
:10347000C71608F051CF2C2D30E04D815E81420FF0
:10348000531FA985BA854A9FC0014B9F900D5A9F33
:10349000900D1124FC01E80DF91DF88BEF87852DA7
:1034A000612C4F89588D420F531F5E8B4D8B6714D3
:1034B00008F050C044244394480E877041F4C10181
:1034C0000196EB89FC89E20DF31DD4901C01D7FE17
:1034D00019C0A98DBA8DED91FC91662D70E0B1E017
:1034E000BB1219C0AB1217C02D853E85620F731F2A
:1034F0000484F585E02D2F8138854D895E89898D7D
:103500009A8D0995DD0C6394842DD1CF1E821D8286
:103510001C821B8288CF4B815C81640F751FAB8539
:10352000BC856A9FC0016B9F900D7A9F900D1124FE
:1035300069817A81680F791F0684F785E02DEF8015
:10354000F88409851A859D014F855889898D9A8D42
:103550000995D8CF570CC3948ACF6A960FB6F894C2
:10356000DEBF0FBECDBFDF91CF911F910F91FF90B6
:10357000EF90DF90CF90BF90AF909F908F907F9013
:103580006F905F904F903F902F9008958F929F92F1
:10359000AF92CF92EF92FF920F931F93CF93DF934F
:1035A000EC01262F898D9A8D009709F051C06A3061
:1035B000D1F41D861C868D8948E0849F90011124DA
:1035C0008E859F85820F931F9F878E8781E090E075
:1035D000DF91CF911F910F91FF90EF90CF90AF901F
:1035E0009F908F9008956D3089F3CC88AD888F8936
:1035F0008823C1F08C859D8536E0C39E800D911D8A
:103600001124488559854817590764F44E855F850C
:103610001D861C8638E0A39EC0011124840F951FCF
:103620009F878E87EA88FB88088919894E855F8580
:103630006C857D85CE010E94A1182C898C859D8585
:1036400046E0249F800D911D11249D878C87BECF5D
:103650006A3069F41D861C86FC013896E4912D8938
:103660008E859F85E29F800D911D1124ADCF6D3019
:1036700009F4ACCFFC0134963491631708F4A6CF5B
:103680003296E491E61708F4A1CFFC0132968590BA
:103690009490462F431B342F47E0349F800C911C9D
:1036A0001124F401329634913196E4913323A9F137
:1036B000EE2399F1CC88F4013596E491AD884F89D9
:1036C000442301F10E2E000CFF0BE30FF11DCE9EE3
:1036D000A001CF9E500D11246C857D85460F571F8C
:1036E00068857985641775076CF44E855F851D863E
:1036F0001C86FC013896E491AE9E400D511D1124AC
:103700005F874E87EA88FB88088919894E855F851F
:103710006C857D85CE010E94A118F4013496E49158
:103720002C898C859D85E29F800D911D11248DCF64
:103730006F927F928F929F92AF92BF92CF92DF92C1
:10374000EF92FF920F931F93CF93DF93EC016B01E6
:103750005A0139014801E881F9810284F385E02D9D
:103760000995E881F9810288F389E02D87019301A9
:10377000A501B601CE010995A501480D591D41507D
:103780005109E881F9810288F389E02D9301B6019E
:10379000CE010995E881F9810088F189E02D940135
:1037A000A501B601CE010995C60CD71CB601615022
:1037B0007109E881F9810088F189E02D9401A50162
:1037C000CE010995E881F9810688F789E02DCE01BF
:1037D000DF91CF911F910F91FF90EF90DF90CF90ED
:1037E000BF90AF909F908F907F906F9009946F9251
:1037F0007F928F929F92AF92BF92CF92DF92EF9281
:10380000FF920F931F93CF93DF935C01EB016A014B
:10381000490138018701DC01ED91FC9162177307C2
:1038200019F5641675062CF0962D872D3A01C92ED0
:10383000D82E9601261937092F5F3F4F048CF58D3E
:10384000E02DA301BE01C5010995DF91CF911F9124
:103850000F91FF90EF90DF90CF90BF90AF909F902F
:103860008F907F906F9008954615570591F4261715
:10387000370724F0892D4B01C22FD82F9E0128191C
:1038800039092F5F3F4F068CF78DE02DA601B4015B
:10389000DACF0284F385E02D0995D501ED91FC91F5
:1038A0000488F589E02D83019401A601BE01C501BC
:1038B0000995D501ED91FC910688F789E02DC501A8
:1038C000DF91CF911F910F91FF90EF90DF90CF90FC
:1038D000BF90AF909F908F907F906F900994EF92E0
:1038E000FF920F931F93DC011A960D911C911B9769
:1038F00018962D913C911997ED91FC9100A0F1A1A2
:10390000E02D7B0150E040E070E060E009951F9100
:103910000F91FF90EF9008954F925F926F927F9278
:103920008F929F92AF92BF92CF92DF92EF92FF92CF
:103930000F931F93CF93DF936C012B015A01390131
:103940004801DC01ED91FC910284F385E02D09959D
:10395000E201640C751CD601ED91FC91C615D705EA
:103960005CF40088F189E02D87019401A501BE0176
:10397000C60109952196EFCF0688F789E02DC6018B
:10398000DF91CF911F910F91FF90EF90DF90CF903B
:10399000BF90AF909F908F907F906F905F904F906F
:1039A00009948F929F92AF92BF92CF92DF92EF9243
:1039B000FF920F931F93CF93DF93EC015B014A01BA
:1039C0006901E881F9810284F385E02D099595016B
:1039D0002C0D3D1D21503109E881F9810488F589BC
:1039E000E02D78018401A401B501CE010995E8819B
:1039F000F9810688F789E02DCE01DF91CF911F91E3
:103A00000F91FF90EF90DF90CF90BF90AF909F907D
:103A10008F9009948F929F92AF92BF92CF92DF9234
:103A2000EF92FF920F931F93CF93DF93EC015B0113
:103A30004A0169017801E881F9810284F385E02D6A
:103A40000995C80CD91C860101501109E881F9813A
:103A50000488F589E02D9501A401B501CE010995F1
:103A6000E881F9810688F789E02DCE01DF91CF91B9
:103A70001F910F91FF90EF90DF90CF90BF90AF908C
:103A80009F908F900994EF92FF920F931F93DC0108
:103A9000ED91FC9100A0F1A1E02D09951F910F91EE
:103AA000FF90EF9008950F931F93DC01ED91FC912F
:103AB000068CF78DE02D09951F910F9108950F93B6
:103AC0001F93DC01ED91FC91048CF58DE02D09959F
:103AD0001F910F910895DC01ED91FC910084F18517
:103AE000E02D09942F923F924F925F926F927F92B6
:103AF0008F929F92AF92BF92CF92DF92EF92FF92FE
:103B00000F931F93CF93DF9300D000D000D0CDB799
:103B1000DEB73C016A013E832D83FC82EB825801B3
:103B2000A41AB50AB7FE03C0B194A194B1088D8060
:103B30009E80861A970A97FE03C0919481949108FB
:103B40008A149B045CF0902F812F0D811E819D8330
:103B50008E839C2D8D2D6B01692F782F0C151D05E3
:103B60005CF09D818E817E836D83692F782F902FED
:103B7000812F8601C92ED82E1601201A310A2B0159
:103B80002D813E81421A530A57FE03C0519441943D
:103B90005108710137FE03C03FEFE31AF30AF594B1
:103BA000E7948D819E81861797075CF5A1E0B0E0D0
:103BB000BA83A983C016D1064CF1D301ED91FC91D3
:103BC0000484F585E02D2B813C81A8016D817E81E7
:103BD0008A149B041CF04D815E81B801C3010995D4
:103BE000E418F508F7FE0AC02D813E8189819A818B
:103BF000280F391F3E832D83E20CF31C0F5F1F4FEC
:103C0000D9CF2FEF3FEF3A832983D4CF26960FB633
:103C1000F894DEBF0FBECDBFDF91CF911F910F9102
:103C2000FF90EF90DF90CF90BF90AF909F908F90DC
:103C30007F906F905F904F903F902F9008950895E0
:103C400090E080E00895CF92DF92EF92FF920F9381
:103C50001F93CF939091A40421E020934B03909362
:103C60006D0310924C0310926E03682F8CE094E069
:103C70000E94E20F81E00E94A20EC091A4040E9463
:103C8000580C6B017C0180914503811165C081E076
:103C900080934503809344039FEF909343031092D6
:103CA0004203109241038093200380912003CC0FA4
:103CB000C82BC093200380911F03813009F080C07E
:103CC00010921F030E94580C6B017C01809120030D
:103CD0008093BB008091470390914803A0914903D2
:103CE000B0914A03892B8A2B8B2BA1F00E94580C90
:103CF00000914703109148032091490330914A03F2
:103D00006C197D098E099F090617170728073907BF
:103D100008F443C08091BC0083FDD8CF85EC80932C
:103D2000BC000E94580C6B017C01809145038130DE
:103D300009F448C080914203C1E0811102C0C091E2
:103D40004203E1E2F3E0AFEFB2E080E08C1751F123
:103D500091919D938F5FFACF809147039091480393
:103D6000A0914903B0914A03892B8A2B8B2B09F42C
:103D70008ACF0E94580C009147031091480320916C
:103D8000490330914A036C197D098E099F09061772
:103D900017072807390708F076CF809146030E945D
:103DA000810EC0E01092FE02C093FD0280E090916F
:103DB000FE02C91749F18CE094E00E94A20FF7CFF0
:103DC00085EEADCF8091470390914803A0914903C0
:103DD000B0914A03892B8A2B8B2B09F4A6CF0E9422
:103DE000580C0091470310914803209149033091EA
:103DF0004A036C197D098E099F09061717072807C2
:103E0000390708F092CFC9CFCF911F910F91FF9042
:103E1000EF90DF90CF9008951F93CF93DF93C62F3D
:103E2000142F8B5C9E4FFC01D0818D2F0E94231E8E
:103E3000837811118C60F0E1CF9FB0011124682BC1
:103E40008D2FDF91CF911F910C941110CF93DF93A1
:103E5000D62FC0E1C80F8C2F0E94231E682FD130AF
:103E600031F460648C2FDF91CF910C9411106F7B33
:103E7000F9CFCF93DF93D82FC62F83E00E94231E64
:103E800061E070E001C0660FDA95EAF7C13039F4FD
:103E90006095682383E0DF91CF910C941110682B1B
:103EA000F9CFFF920F931F93CF93DF93EC018B0118
:103EB000F82E80E1F80E8F2D0E94231E682F011529
:103EC000110581F46F7D8F2D0E941110CC0FDD1F25
:103ED000CA5DDB4F1A870987DF91CF911F910F9140
:103EE000FF9008956062EFCF2F923F924F925F92C2
:103EF0006F927F928F929F92AF92BF92CF92DF92FA
:103F0000EF92FF920F931F93CF93DF93CDB7DEB75E
:103F10002E970FB6F894DEBF0FBECDBF19013A0140
:103F20004B018D879E872801012B09F073C0E0911A
:103F30008F04F0919004EE0FFF1FEE0FFF1FE55668
:103F4000FB4FA080B180C280D380CE0101967C015E
:103F500089019301AB016D857E8590E080E00E9430
:103F60004B0384E190E00E9404398C0189859A8595
:103F7000AB85BC85F8019083818339814A812B818F
:103F800023702283438334832CE0B695A7959795BD
:103F900087952A95D1F7807F2D813E819F819F70E3
:103FA000892B8583368327834114510409F04BC044
:103FB000A80168E08AE10E942C1020927F043092D0
:103FC00080046092810470928204809283049092B3
:103FD0008404FD85F09385048E8580938604C80152
:103FE0002E960FB6F894DEBF0FBECDBFDF91CF91F6
:103FF0001F910F91FF90EF90DF90CF90BF90AF9007
:104000009F908F907F906F905F904F903F902F90F8
:104010000C94A039E0919104F0919204EE0FFF1FEF
:10402000EE0FFF1FE556FB4FA080B180C280D3800A
:10403000FE0131967F0181019A01AB016D857E857C
:1040400081E090E08CCF4A94452849F6A80168E0C9
:1040500082E20E942C1020928704309288046092A1
:10406000890470928A0480928B0490928C04ED856E
:10407000E0938D04FE85F0938E04B1CF0F931F93D0
:10408000FA01EE0FFF1FEE0FFF1FE556FB4F608397
:10409000718382839383EFE7F4E020813181428151
:1040A00053816481758110E000E0868197810E94D0
:1040B000741FE7E8F4E020813181428153816481FB
:1040C000758101E010E0868197810E94741F1F9125
:1040D0000F9108952F923F924F925F926F927F922D
:1040E0008F929F92AF92BF92CF92DF92EF92FF9208
:1040F0000F931F93CF93DF93CDB7DEB72D970FB6F6
:10410000F894DEBF0FBECDBF3C01C982DA82EB82DC
:10411000FC820D831E832F83388749875A876B87DC
:104120007C87BAA03C2C2D2C5E2C0D87412E922E24
:10413000C984DA84EB84FC8484E190E00E94043931
:104140008C01FC01D082C182862D880F880F880FD8
:10415000845D0E94231EF52DF3705F2E8C7F582AFC
:10416000F8015282238234828CE0F694E794D7944B
:10417000C7948A95D1F7FC2DF07FCF2E892D8F70B3
:10418000C82AF801C58246828D85878393E0691627
:10419000710409F46CC0A8F5F1E06F16710409F41C
:1041A00048C082E06816710409F452C0A80168E0B2
:1041B0008AE20E942C106A2D90E080E00E94261F67
:1041C0004B2D682D90E080E00E940C1FC8012D96B9
:1041D0000FB6F894DEBF0FBECDBFDF91CF911F9118
:1041E0000F91FF90EF90DF90CF90BF90AF909F9096
:1041F0008F907F906F905F904F903F902F900C9496
:10420000A03994E06916710409F440C0E5E06E1627
:10421000710461F6A80168E082E50E942C106A2D05
:1042200085E090E00E94261F4B2D682D85E090E0F0
:10423000CBCFA80168E082E30E942C106A2D81E0B8
:1042400090E00E94261F4B2D682D81E090E0BCCFAE
:10425000A80168E08AE30E942C106A2D82E090E0B9
:104260000E94261F4B2D682D82E090E0ADCFA80163
:1042700068E082E40E942C106A2D83E090E00E94A6
:10428000261F4B2D682D83E090E09ECFA80168E0AB
:104290008AE40E942C106A2D84E090E00E94261F80
:1042A0004B2D682D84E090E08FCF2F923F924F925C
:1042B0005F926F927F928F929F92AF92BF92CF92B6
:1042C000DF92EF92FF920F931F93CF93DF93CDB7BF
:1042D000DEB7E5970FB6F894DEBF0FBECDBFE22E76
:1042E00029A3F32E3AA34BA35CA36DA37EA38FA3B4
:1042F00098A7702E612E9701AFEF0E94E6382E37F7
:104300003A4146405105610571058105910509F065
:1043100058F480E889A38AE18AA386E08BA31CA2D3
:104320001DA21EA21FA218A629A13AA14BA15CA101
:104330006DA17EA18FA198A52115314C4A415D4305
:10434000654071058105910569F060F019A281EC65
:104350008AA38AE18BA38DE38CA385E08DA31EA2A3
:104360001FA218A6D9A04AA05BA0ACA0EDA0FEA0F9
:104370000FA118A5272C362C2D2D342D452D5A2D67
:10438000B701C8012115344E4B40544562407105B8
:104390008105910509F008F425C1AFE34A2EA4E098
:1043A0005A2E26E234E03AA729A78901F201D12C3E
:1043B000C101880F991FDC01A15DBB4F7D012081E8
:1043C00031814281538164817581868197813896DC
:1043D0002115344E4B4054456240710581059105CD
:1043E00071F068F0D71459F0D80119962D913C91CD
:1043F000D7018D919C912817390709F46AC1D3948C
:104400000E5F1F4FB6E0DB12DACF81010B551B4F59
:10441000F8018081811108C061E0872D962D0E94EE
:10442000391F81E0D8018C9329A13AA14BA15CA14D
:104430006DA17EA18FA198A5D101E3E0AA0FBB1FBA
:10444000EA95E1F7AA5DBB4FFD01799659962C9349
:104450003183428353836483758386839783FE010C
:104460003D964F01A12CB12CC12CD12CE12CF12C6B
:1044700000E010E00E9446082BA73CA74DA75EA7CE
:104480006FA778AB89AB9AABC101880F991F9C01CC
:104490002A5D3B4F7901D90119960D911C912BA5ED
:1044A0003CA589A99AA90E94741F712C612CF7015F
:1044B0003996FDABECABD201AC901196EC90119714
:1044C0001296FC90129713960C91139714961C91C8
:1044D00014971596BC91F201D680C780F8E04F0E74
:1044E000511C2A2D3E2D4F2D502F612F7B2F8D2DAE
:1044F0009C2DA0E00E94F23809F455C0E9A5FAA568
:1045000021853285ECA9FDA9808191812817390781
:1045100009F049C0A98EEA8EFB8E0C8F1D8FBE8FCD
:10452000DF8EC8A2CE0149960E945C0A8BAB298D12
:104530003A8D4B8D5C8D6D8D7E8DCE0101964C013B
:10454000ABA4BCA4CDA4DEA4EFA4F8A809A91AA921
:104550008F8D98A10E944608AA24A394298D3A8D94
:104560004B8D5C8D6D8D7E8D8F8D98A12F3F354D40
:1045700041415E47634071058105910509F008F4EA
:10458000A12CAF928BA8C980DA80EB80FC800D81D2
:104590001E812F81388549855A856B857C85C301AD
:1045A0000E946A200F90BFEF6B1A7B0AE9A5FAA55B
:1045B0003296FAA7E9A7F6E06F16710409F07BCFEF
:1045C000F101EE0FFF1FEA5DFB4F8185928560E2EE
:1045D000009719F0019721F460E881EB0E94111017
:1045E00080E078C0D10193E0AA0FBB1F9A95E1F754
:1045F000AA5DBB4FFD0179965996DC9241825282A9
:10460000A382E482F5820683178381010B551B4F39
:10461000D8018C91811108C061E0872D962D0E94F0
:10462000391F81E0F8018083CE0181960E945C0AE7
:10463000582EF101EE0FFF1FEA5DFB4F0184F2855A
:10464000E02D29A13AA14BA15CA16DA17EA18FA172
:1046500098A5EF2B51F5A0907F04B0908004C090F6
:104660008104D0908204E0908304F090840400914F
:10467000850410918604DE011D964D010E944608B6
:104680001F92852CA12CCD84DE84EF84F8880989C3
:104690001A892B893C894D895E896F89788D872D90
:1046A000962D0E946A200F909BCFA0908704B09017
:1046B0008804C0908904D0908A04E0908B04F09024
:1046C0008C0400918D0410918E04FE013D964F01E3
:1046D000D5CF81E0E5960FB6F894DEBF0FBECDBF13
:1046E000DF91CF911F910F91FF90EF90DF90CF90CE
:1046F000BF90AF909F908F907F906F905F904F9002
:104700003F902F9008950F931F93CF93DF932091A5
:104710000F01309110014091110150911201285A5E
:104720003E40494F5F4FA4E6B0E00E940237DC01F3
:1047300010E000E09B01AD0160E070E080E090E0FF
:104740000E945521DF91CF911F910F9108950E94F2
:10475000293AFB0101900020E9F73197AF01461B90
:10476000570BDC01ED91FC910280F381E02D09945F
:104770008F929F92AF92BF92EF92FF920F931F93EF
:10478000CF93DF93CDB7DEB7A1970FB6F894DEBF16
:104790000FBECDBF7C01FA01CB0119A2223008F473
:1047A0002AE08E010F5D1F4F822E912CB12CA12C7F
:1047B000BF01A50194010E940D37F901CA016A30B9
:1047C0000CF5605DD8016E938D01232B242B252BD6
:1047D00079F790E080E0109721F0BD01C7010E94B9
:1047E000A923A1960FB6F894DEBF0FBECDBFDF910F
:1047F000CF911F910F91FF90EF90BF90AF909F903E
:104800008F900895695CDECFCF92DF92EF92FF9296
:10481000CF93DF936C01990FEE08FF08F7FE23C0DA
:104820006DE28FE693E00E94CF0DEC0144275527FF
:10483000BA014C195D096E097F092AE08FE693E001
:104840000E94B823C80FD91F61E971E08FE693E099
:104850000E94A9238C0F9D1FDF91CF91FF90EF90B5
:10486000DF90CF9008952AE0B701A6018FE693E08C
:104870000E94B823EC01E8CF482F50E070E060E0E0
:104880002AE080EB94E00C94B823BC0180EB94E028
:104890000C94A9230F931F93CF93C0910001CF5F76
:1048A000C0930001C13039F0C23009F44DC0CF913E
:1048B0001F910F91089561E081E090E00E94391FFF
:1048C00001E010E020E636E446EB52E060E070E004
:1048D00080E090E00E94552100E018EF24E130E0F4
:1048E0004CE350E062E870E08AEA90E00E943A18F7
:1048F00024E130E04CE350E062E870E08AEA90E0C6
:104900000E94B9178FEF9FEF9093C3048093C20466
:104910009093C1048093C00482E08093C404809388
:10492000C50488EB90E09093BD048093BC0485E8B7
:1049300090E09093BF048093BE0484E991E0CF910E
:104940001F910F910C94452460E081E090E00E945B
:10495000391F0FE110E024E130E04CE350E062E861
:1049600070E08AEA90E00E943A1824E130E04CE3DB
:1049700050E062E870E08AEA90E00E94B9178FEF99
:104980009FEF9093C3048093C2049093C1048093DB
:10499000C004C093C404C093C50488EB90E0909316
:1049A000BD048093BC0485E890E09093BF0480939D
:1049B000BE0484E991E00E9445241092000177CF63
:1049C0008F929F92AF92BF92CF92DF92EF92FF921F
:1049D0000F931F9380900F0190901001A0901101F0
:1049E000B0901201C501B40120E432E44FE050E080
:1049F0000E940D3720938702C501B40120EA36E8F2
:104A000041E050E00E940D378AE0C82ED12CE12C05
:104A1000F12CCA01B901A70196010E940D376093DC
:104A20008602C501B40120E137E240E050E00E9477
:104A30000D37CA01B901A70196010E940D37609395
:104A40008502C501B40128EE33E040E050E00E9449
:104A50000D37CA01B901A70196010E940D37609375
:104A60008402C501B40124E630E040E050E00E9439
:104A70000D37CA01B901A70196010E940D37609355
:104A80008302C501B401A70196010E940D37CA0136
:104A9000B901A70196010E940D3760938202F12CA3
:104AA000E12C00E210E027EB30E04CE250E060E760
:104AB00070E080EB94E00E948C12E0EBF4E08FEF6A
:104AC0009FEF938B828B918B808B87E890E095870B
:104AD00084878CE290E09787868783E0848B858B40
:104AE000809187020E943C2486E192E00E94452446
:104AF000809186020E943C24809185020E943C2481
:104B0000809184020E943C2486E192E00E94452428
:104B1000809183020E943C24809182021F910F9118
:104B2000FF90EF90DF90CF90BF90AF909F908F90CD
:104B30000C943C240F931F93CF93DF93EC010E94BE
:104B4000A9238C0161E971E0CE010E94A923800FA5
:104B5000911FDF91CF911F910F9108958F929F9296
:104B6000AF92BF92CF92DF92EF92FF920F931F937B
:104B7000CF93DF93C0EBD4E0992493949C8A9D8AD1
:104B8000CC24CA94DC2CD98AC88A1B8A1A8A88E267
:104B900091E09D878C8795EAA92EB12CBF86AE86C1
:104BA00068E971E0CE010E949A25EE24EA94FE2C79
:104BB00003E010E02CEA30E048EB50E06FE070E0FA
:104BC000CE010E948C122AE131E049EC50E06FE006
:104BD00070E0CE010E948C12E12C38EFF32E2EE60D
:104BE00030E049EB50E06BEB70E0CE010E948C129C
:104BF000EE24EA94FE2C06E010E023E030E041EBE6
:104C000050E06FE070E0CE010E948C128CE090E0EA
:104C10009D878C87BF86AE866BE971E0CE010E94CE
:104C20009A2523E030E041EB50E064E270E0CE01F1
:104C30000E948C1223E030E041EB50E069E370E029
:104C4000CE010E948C1286E390E09D878C87BF8600
:104C5000AE866DE971E0CE010E949A2523E030E036
:104C600041EB50E06EE470E0CE010E948C1223E034
:104C700030E041EB50E063E670E0CE010E948C1220
:104C800081E690E09D878C87BF86AE866FEE71E0EF
:104C9000CE010E949A2523E030E041EB50E068E726
:104CA00070E0CE010E948C1223E030E041EB50E036
:104CB0006DE870E0CE010E948C128BE890E09D8739
:104CC0008C87BF86AE866FE971E0CE010E949A257F
:104CD00023E030E041EB50E062EA70E0CE010E9458
:104CE0008C1223E030E041EB50E067EB70E0CE0146
:104CF0000E948C1285EB90E09D878C87BF86AE86E4
:104D000061EA71E0CE010E949A25E12C58EFF52E60
:104D100023E030E041EB50E06DEC70E0CE010E940A
:104D20008C1223E030E041EB50E063EE70E0CE0106
:104D30000E948C128CED90E09D878C87BF86AE869A
:104D400063EA71E0CE010E949A2523E030E041EB56
:104D500050E069EF70E0CE010E948C1223E030E059
:104D600041EB50E06FE070E0CE010E948C1289E0D0
:104D700091E09D878C87BF86AE8667EA71E0CE01A1
:104D80000E949A2523E030E041EB50E065E270E0BC
:104D9000CE010E948C1282E090E09D878C8788EE85
:104DA00090E09F878E87DB8ACA8AD98AC88A9C8AC4
:104DB0009D8A8BEA91E00E94452400E018EF28E2EA
:104DC00030E04AE351E065E570E082E090E00E9467
:104DD0003A1886E490E09D878C878FE590E09F8766
:104DE0008E87DB8ACA8AD98AC88A62E0F62EFC8A54
:104DF000FD8A83EC91E00E9445248DE990E09D8737
:104E00008C8776E1872E912C9F868E86E0EEAE2EE3
:104E1000E7E0BE2EBB8AAA8AB98AA88AFC8AFD8AE4
:104E200082ED91E00E94452426E430E043E650E024
:104E30006AE070E081E090E00E943A1826E430E0F9
:104E400043E650E06AE070E081E090E00E94B9172C
:104E500088E190E09D878C879F868E86BB8AAA8A90
:104E6000B98AA88AFC8AFD8A8CED91E00E944524CB
:104E700082E190E09D878C8782E390E09F878E8718
:104E8000DB8ACA8AD98AC88AFC8AFD8A81EE91E0C7
:104E90000E94452426E430E044ED50E06AE070E0F2
:104EA00087E690E00E94B917FC8AFD8A0FE110E0C6
:104EB00024E130E04CE350E062E870E08AE090E00A
:104EC0000E943A1824E130E04CE350E062E870E0E0
:104ED0008AE090E00E94B917DB8ACA8AD98AC88A18
:104EE00084E190E09D878C87F5E8AF2EB12CBF86DA
:104EF000AE8688EE91E00E94452424E130E04CE348
:104F000050E062E870E08AE590E00E943A1824E1FF
:104F100030E04CE350E062E870E08AE590E00E9407
:104F2000B917DB8ACA8AD98AC88A84E690E09D8745
:104F30008C87BF86AE868DEE91E00E94452424E1E9
:104F400030E04CE350E062E870E08AEA90E00E94D2
:104F50003A1824E130E04CE350E062E870E08AEA7D
:104F600090E00E94B917DB8ACA8AD98AC88A88EB7E
:104F700090E09D878C87BF86AE8684E991E00E9491
:104F8000452424E130E04CE350E062E870E08AEF31
:104F900090E00E943A1824E130E04CE350E062E8EF
:104FA00070E08AEF90E00E94B917DB8ACA8AD98A3A
:104FB000C88A82E091E09D878C87BF86AE8681EFAC
:104FC00091E0DF91CF911F910F91FF90EF90DF90D3
:104FD000CF90BF90AF909F908F900C944524CF922C
:104FE000DF92EF92FF920F931F93CF93DF93EC0129
:104FF0006A017B01C114D104E104F10431F4C12C34
:1050000042E1D42E4AE7E42EF12C8FA987FD07C098
:1050100061E00E941C0C61E08FA90E94EE0B61E030
:1050200088AD0E941C0C61E088AD0E94EE0B8DA93A
:105030008111A3C040E052E16AE770E0C416D506D2
:10504000E606F70640F476956795579547958F5F86
:105050008630A1F787E0982F906A969599A380955E
:1050600081708AA31BA21CA21DA21EA21FB7F894C6
:105070008091CE02811127C0E7E2F6E08491E9E059
:10508000F6E09491E82FF0E0EE0FFF1FE952FA4F9F
:10509000A591B491EC91E92321F461E08AE00E94AA
:1050A000EE0B61E08AE00E941C0C8CB580618CBD27
:1050B0008CB580648CBD61E08DE00E941C0C61E0C9
:1050C0008BE00E941C0C8091CE028F5F8093CE02F9
:1050D0001FBF8EA987FD21C061E00E941C0C61E00A
:1050E0008EA90E94EE0B64E670E080E090E00E94E2
:1050F0007D0C60E08EA90E94EE0B64E670E080E01B
:1051000090E00E947D0C61E08EA90E94EE0B68EC9D
:1051100070E080E090E00E947D0C8EA987FF0DC0BA
:1051200020E050E040E061E0CE010E94BC1666E95C
:1051300070E080E090E00E947D0C08E615E0C80178
:105140000196F8016491662309F463C00E5F1F4F56
:10515000FC01F490EF2CE894E7F82E2DA801CE0185
:105160000E94BC160E0D111DF7FEE9CF66E970E036
:1051700080E090E00E947D0CE2CF0DE116E0F12C82
:105180008130B9F461E08AA50E941C0C60E08AA518
:105190000E94EE0B61E08CA50E941C0C60E08CA5C7
:1051A0000E94EE0B8BA587FD94CF60E00E941C0C43
:1051B00090CFF8018491E82FF0E0EE0FFF1FED5E35
:1051C000F94F859194912F8D38A12817390741F413
:1051D00061E08F2D0E941C0C60E08F2D0E94EE0B71
:1051E000F3940F5F1F4FF4E1FF12E3CF61E08EA550
:1051F0000E941C0C61E08EA50E94EE0B8FA587FD1E
:1052000068CF61E00E941C0C61E08FA50E94EE0B4C
:1052100060CF80EF90E09987888780E491E09B875A
:105220008A87DF91CF911F910F91FF90EF90DF90D0
:10523000CF90089585ED8093BC00809147039091B5
:105240004803A0914903B0914A030796A11DB11DDF
:1052500023E0B695A795979587952A95D1F7209144
:10526000BC0024FD03C010924503089540914703FC
:10527000509148036091490370914A03452B462B96
:10528000472B69F30097A105B10541F02AE22A9561
:10529000F1F700C00197A109B109E1CF8091460360
:1052A0000C94810E1F920F920FB60F9211242F9320
:1052B0003F938F939F93AF93BF93809118049091E6
:1052C0001904A0911A04B0911B043091F80223E054
:1052D000230F2D3758F50196A11DB11D2093F8021B
:1052E0008093180490931904A0931A04B0931B049C
:1052F0008091F9029091FA02A091FB02B091FC0218
:105300000196A11DB11D8093F9029093FA02A0931A
:10531000FB02B093FC02BF91AF919F918F913F919F
:105320002F910F900FBE0F901F90189526E8230F16
:105330000296A11DB11DD2CF1F920F920FB60F92F0
:1053400011242F933F934F935F936F937F938F938A
:105350009F93AF93BF93EF93FF938FE693E00E94E9
:10536000AD0DFF91EF91BF91AF919F918F917F9183
:105370006F915F914F913F912F910F900FBE0F90C2
:105380001F9018951F920F920FB60F9211242F9312
:105390008F939F93EF93FF93E0917F03F0918003AE
:1053A0008081E0918503F091860382FD1BC090818E
:1053B000809188038F5F8F7320918903821741F05A
:1053C000E0918803F0E0E159FC4F958F80938803CA
:1053D000FF91EF919F918F912F910F900FBE0F90A2
:1053E0001F9018958081F4CF1F920F920FB60F92E5
:1053F00011242F933F934F935F936F937F938F93DA
:105400009F93AF93BF93EF93FF938091D9029091B5
:10541000DA028093B2008091DC029091DD02A091CB
:10542000DE02B091DF020196A11DB11D8093DC0266
:105430009093DD02A093DE02B093DF028091DC0244
:105440009091DD02A091DE02B091DF024091D50281
:105450005091D6026091D7027091D80284179507B7
:10546000A607B70710F18091DB0281111EC081E011
:105470008093DB028091DC029091DD02A091DE023C
:10548000B091DF02841B950BA60BB70B8093DC0257
:105490009093DD02A093DE02B093DF02E091D3028D
:1054A000F091D40209951092DB02FF91EF91BF9128
:1054B000AF919F918F917F916F915F914F913F91AC
:1054C0002F910F900FBE0F901F9018951F920F9263
:1054D0000FB60F9211242F933F934F935F936F93C7
:1054E0007F938F939F93AF93BF93EF93FF9380919D
:1054F000B900887F803609F44AC0F0F5883209F493
:10550000A7C018F5803109F49BC0B8F4882309F4CA
:10551000F9C0883009F494C0FF91EF91BF91AF9129
:105520009F918F917F916F915F914F913F912F91BB
:105530000F900FBE0F901F901895883109F488C006
:10554000803251F78093430314C0803409F49DC026
:1055500040F48033B9F38833F9F68093430385EC44
:10556000B0C0803509F485C0883509F496C0883408
:1055700099F60E941A29D0CF883909F48CC038F5E1
:10558000883729F050F4883611F0803729F683E007
:10559000809345031092CD0257C0883809F47BC030
:1055A000803919F0803809F0B7CF8091CD02803270
:1055B00008F071C0E091CD0281E08E0F8093CD02A2
:1055C0008091BB00F0E0E355FD4F80833DC0803B00
:1055D00039F0E0F4803A09F479C0883A09F09CCFB8
:1055E00084E0809345031092AC021092AB02E091EC
:1055F000D102F091D20209958091AB0281110FC0C6
:1056000081E08093AB0210928B0209C0803C09F4C8
:10561000A6CF883C09F4A3CF883B09F07DCFE09169
:10562000AC0281E08E0F8093AC02F0E0E557FD4FB5
:1056300080818093BB009091AC028091AB0229C025
:10564000809120038093BB0085EC8093BC0064CFE5
:105650009091420380914103981758F5E0914203DD
:1056600081E08E0F80934203F0E0EF5DFC4F80817C
:10567000E9CFE091420381E08E0F80934203809155
:10568000BB00F0E0EF5DFC4F80839091420380917E
:1056900041039817C8F285E8D8CFE091420381E032
:1056A0008E0F809342038091BB00F0E0EF5DFC4FD2
:1056B00080838091440381115CCF81E080931F033C
:1056C00084EA8093BC001092450326CF85EC80933A
:1056D000BC00109245038091CD02803230F4E091FD
:1056E000CD02F0E0E355FD4F10826091CD0270E0F5
:1056F000E091CF02F091D0028DEA92E009951092EC
:10570000CD020ACF1092430334CF1F920F920FB6EF
:105710000F9211242F933F934F935F936F937F9337
:105720008F939F93AF93BF93CF93DF93EF93FF93A9
:105730008091AF040E94C50BEC018091AE040E94E1
:10574000C50B9091AD049F70CC0FDD1FC82B24E0DA
:10575000929FC0011124875E9E4FC80FD92FD11D83
:1057600088818093AD04807301F1803189F5809147
:10577000090190910A01092E000CAA0BBB0B409164
:105780000F01509110016091110170911201840F6D
:10579000951FA61FB71F80930F0190931001A09330
:1057A0001101B09312010E94E024FF91EF91DF916B
:1057B000CF91BF91AF919F918F917F916F915F91A9
:1057C0004F913F912F910F900FBE0F901F90189502
:1057D000803259F74091090150910A01052E000CC1
:1057E000660B770B80910F0190911001A091110130
:1057F000B0911201841B950BA60BB70BCCCFCF93A6
:10580000DF93EFE6F3E01382128288EE93E0A0E0EC
:10581000B0E084839583A683B78321E431E03183AC
:10582000208325EC30E03587248724EC30E037876F
:10583000268720EC30E0318B208B21EC30E0338B5D
:10584000228B22EC30E0358B248B26EC30E0378B3A
:10585000268B118E128E138E148EECE0F4E01382E0
:10586000128284839583A683B78383E591E0918335
:105870008083A0EBB4E013961C921E92129720EF47
:1058800030E015963C932E93149780E491E01796A0
:105890009C938E93169719963C932E9318971B966C
:1058A0009C938E931A9756961C9256971D961C920F
:1058B0001E921C971F961C921E921E9781E0559671
:1058C0008C93559754968C9354972FEF3FEF5396A4
:1058D0003C932E93529751963C932E935097579604
:1058E0008C93579758961C9258975A961C921E92D2
:1058F0005997D5961C92D5978FEFD6968C93D697BD
:105900008AE0D7968C93D79789E0D8968C93D897CE
:10591000DA961C921E92D997DC961C921E92DB9707
:10592000DD961C92DD97DE961C92DE971092EF04B6
:105930001092F0041092F1041092F2048CE194E0C1
:1059400090969C938E935F97E6E2F6E0E491F0E008
:10595000EE0FFF1FED5EF94F859194915E969C933B
:105960008E935D97E8E0F6E08491D3968C93D3977D
:10597000E7E2F6E0E491F0E0EE0FFF1FED5EF94F95
:10598000259134915C963C932E935B97E9E0F6E089
:10599000E491D196EC93D197E095D296EC93D2977F
:1059A000E82FE095D496EC93D49785E691E08D931B
:1059B0009C93CDEAD4E083E0898382E08A8360E02F
:1059C00083E00E941C0C60E08A810E941C0C61E054
:1059D00089810E94EE0B61E08A810E94EE0B1882A1
:1059E000E6E2F4E085E0DF011D928A95E9F7158291
:1059F00016821782108680E68093A40480E498E7DC
:105A0000ADE7B1E08093930490939404A093950440
:105A1000B09396041092900410928F041092920406
:105A2000109291041092A304EDE1F4E0108284E15D
:105A300090E0A0E0B0E085839683A783B0872FB77E
:105A4000F8948091180490911904A0911A04B091CF
:105A50001B042FBF81839283A383B483DF91CF91F3
:105A60000895789484B5826084BD84B5816084BDD6
:105A700085B5826085BD85B5816085BD80916E00EC
:105A8000816080936E00109281008091810082601D
:105A9000809381008091810081608093810080915A
:105AA00080008160809380008091B1008460809349
:105AB000B1008091B00081608093B00080917A0045
:105AC000846080937A0080917A00826080937A006B
:105AD00080917A00816080937A0080917A0080685A
